{
  "contractName": "ExpToken",
  "abi": [
    {
      "constant": true,
      "inputs": [],
      "name": "totalSupply",
      "outputs": [
        {
          "name": "",
          "type": "uint256"
        }
      ],
      "payable": false,
      "stateMutability": "view",
      "type": "function"
    },
    {
      "inputs": [],
      "payable": false,
      "stateMutability": "nonpayable",
      "type": "constructor"
    }
  ],
  "bytecode": "0x608060405234801561001057600080fd5b5064174876e800600081905550609e8061002b6000396000f3fe608060405260043610603f576000357c0100000000000000000000000000000000000000000000000000000000900463ffffffff16806318160ddd146044575b600080fd5b348015604f57600080fd5b506056606c565b6040518082815260200191505060405180910390f35b6000548156fea165627a7a7230582028ce40b196c79410b4136ed5b22e3389513430b96063f87709510e82c229c6a80029",
  "source": "pragma solidity >=0.4.21 <0.6.0;\n\ncontract ExpToken {\n\tuint256 public totalSupply;\n\tconstructor () public{\n\t\ttotalSupply = 100000000000;\n\t}\n}\n",
  "sourcePath": "/home/rangel/Documents/CA Projects/tokensale/contracts/ExpToken.sol",
  "compiler": {
    "name": "solc",
    "version": "0.5.0+commit.1d4f565a.Emscripten.clang"
  },
  "schemaVersion": "3.0.9",
  "updatedAt": "2019-05-30T07:55:32.585Z",
  "devdoc": {
    "methods": {}
  },
  "userdoc": {
    "methods": {}
  }
}